const key = 'b7420d4287f425479375c7f6eab7338cabd8a61c7b85fd51b00dac3d7443a8ea';
const address = '0xB783eA3D37757f201C8e46dB7A30fB9dDe4EeCd3';

const rawTransactionDetails = {
  'nonce': '0x00',
  'gasPrice': '0xb2d05e00',
  'gasLimit': '0x5208',
  'to': '0xB783eA3D37757f201C8e46dB7A30fB9dDe4EeCd3',
  'value': '0x0de0b6b3a7640000',
  'data': '0x',
  'chainId': 1
};
const transaction = '0xf86b8084b2d05e0082520894b783ea3d37757f201c8e46db7a30fb9dde4eecd3880de0b6b3a76400008026a03134357a75fe5b7335cbbfd775b47a1000cc061537b2c97bdaa1bf5a5841e5b4a0602319cb35b60e2c8bf2ccee2ad3b4f695c2aa5c9c90129eb1047380db811440';

export default {
  key,
  address,
  rawTransactionDetails,
  transaction
};
